:020000040000fa
:080000000001040000000000f3
:020000040000fa
:04000800b40200003e
:020000040000fa
:04000c00ca02000024
:020000040000fa
:040010000c030000dd
:020000040000fa
:04001400e002000006
:020000040000fa
:04001800f6020000ec
:020000040000fa
:04001c000c030000d1
:020000040000fa
:040020000c030000cd
:020000040000fa
:040024000c030000c9
:020000040000fa
:040028000c030000c5
:020000040000fa
:04002c000c030000c1
:020000040000fa
:040030000c030000bd
:020000040000fa
:040034000c030000b9
:020000040000fa
:040038000c030000b5
:020000040000fa
:04003c000c030000b1
:020000040000fa
:040040000c030000ad
:020000040000fa
:040044000c030000a9
:020000040000fa
:0400480010020000a2
:020000040000fa
:04004c000c030000a1
:020000040000fa
:040050000c0300009d
:020000040000fa
:040054000c03000099
:020000040000fa
:040058000c03000095
:020000040000fa
:04005c000c03000091
:020000040000fa
:040060000c0300008d
:020000040000fa
:040064000c03000089
:020000040000fa
:040068000c03000085
:020000040000fa
:04006c000c03000081
:020000040000fa
:040070000c0300007d
:020000040000fa
:040074000c03000079
:020000040000fa
:040078000c03000075
:020000040000fa
:04007c000c03000071
:020000040000fa
:040080000c0300006d
:020000040000fa
:040084000c03000069
:020000040000fa
:040088000c03000065
:020000040000fa
:04008c000c03000061
:020000040000fa
:040090000c0300005d
:020000040000fa
:040094000c03000059
:020000040000fa
:040098000c03000055
:020000040000fa
:04009c000c03000051
:020000040000fa
:0400a0000c0300004d
:020000040000fa
:0400a4000c03000049
:020000040000fa
:0400a8000c03000045
:020000040000fa
:0400ac000c03000041
:020000040000fa
:0400b0000c0300003d
:020000040000fa
:0400b4000c03000039
:020000040000fa
:0400b8000c03000035
:020000040000fa
:0400bc000c03000031
:020000040000fa
:0400c0000c0300002d
:020000040000fa
:0400c4000c03000029
:020000040000fa
:0400c8000c03000025
:020000040000fa
:0400cc000c03000021
:020000040000fa
:0400d0000c0300001d
:020000040000fa
:0400d4000c03000019
:020000040000fa
:0400d8000c03000015
:020000040000fa
:0400dc000c03000011
:020000040000fa
:0400e0000c0300000d
:020000040000fa
:0400e4000c03000009
:020000040000fa
:0400e8000c03000005
:020000040000fa
:0400ec000c03000001
:020000040000fa
:0400f0000c030000fd
:020000040000fa
:0400f4000c030000f9
:020000040000fa
:0400f8000c030000f5
:020000040000fa
:0400fc000c030000f1
:020000040000fa
:040100000c030000ec
:020000040000fa
:040104000c030000e8
:020000040000fa
:040108000c030000e4
:020000040000fa
:04010c000c030000e0
:020000040000fa
:040110000c030000dc
:020000040000fa
:040114000c030000d8
:020000040000fa
:040118000c030000d4
:020000040000fa
:04011c000c030000d0
:020000040000fa
:040120000c030000cc
:020000040000fa
:040124000c030000c8
:020000040000fa
:040128000c030000c4
:020000040000fa
:04012c000c030000c0
:020000040000fa
:040130000c030000bc
:020000040000fa
:040134000c030000b8
:020000040000fa
:040138000c030000b4
:020000040000fa
:04013c000c030000b0
:020000040000fa
:040140000c030000ac
:020000040000fa
:040144000c030000a8
:020000040000fa
:040148000c030000a4
:020000040000fa
:04014c000c030000a0
:020000040000fa
:040150000c0300009c
:020000040000fa
:040154000c03000098
:020000040000fa
:040158000c03000094
:020000040000fa
:04015c000c03000090
:020000040000fa
:040160000c0300008c
:020000040000fa
:040164000c03000088
:020000040000fa
:040168000c03000084
:020000040000fa
:04016c000c03000080
:020000040000fa
:040170000c0300007c
:020000040000fa
:040174000c03000078
:020000040000fa
:040178000c03000074
:020000040000fa
:04017c000c03000070
:020000040000fa
:040180000c0300006c
:020000040000fa
:040184000c03000068
:020000040000fa
:040188000c03000064
:020000040000fa
:04018c000c03000060
:020000040000fa
:040190000c0300005c
:020000040000fa
:040194000c03000058
:020000040000fa
:040198000c03000054
:020000040000fa
:04019c000c03000050
:020000040000fa
:0401a0000c0300004c
:020000040000fa
:0401a4000c03000048
:020000040000fa
:0401a8000c03000044
:020000040000fa
:0401ac000c03000040
:020000040000fa
:0401b0000c0300003c
:020000040000fa
:0401b4000c03000038
:020000040000fa
:0401b8000c03000034
:020000040000fa
:0401bc000c03000030
:020000040000fa
:0401c0000c0300002c
:020000040000fa
:0401c4000c03000028
:020000040000fa
:0401c8000c03000024
:020000040000fa
:0401cc000c03000020
:020000040000fa
:0401d0000c0300001c
:020000040000fa
:0401d4000c03000018
:020000040000fa
:0401d8000c03000014
:020000040000fa
:0401dc000c03000010
:020000040000fa
:0401e0000c0300000c
:020000040000fa
:0401e4000c03000008
:020000040000fa
:0401e8000c03000004
:020000040000fa
:0401ec000c03000000
:020000040000fa
:0401f0000c030000fc
:020000040000fa
:0401f4000c030000f8
:020000040000fa
:0401f8000c030000f4
:020000040000fa
:0401fc000c030000f0
:020000040000fa
:100200000f9920000eff27000e018800000000005b
:10021000000020000000e000020032000001200089
:1002200020028800140007003a0107000000e000e7
:1002300003003a00002823000100200002003700dc
:100240000000200001002000810f7000010032003a
:1002500014000700000020000000e000020032004f
:1002600000000200000000009822020000000000d0
:100270000040da000000fe004440a900c008200051
:100280000000e00003003200002020009001880000
:100290004440a800000006008a1f78008b1f7800e9
:1002a00000000600a1028800800478000000eb0036
:1002b0001f003700e284440054a0b4009905ba003e
:1002c000e284440054a0b4009906ba00e2844400d9
:1002d00054a0b4000006eb00476fde00fd07b2003b
:1002e000ae018800636ce10003003a00eaff0700fa
:1002f0000000eb000e003700606ce10008003a00df
:10030000004deb000a05e800020039003420ec0043
:100310000af0a0008b05e900f9ff3e000400370059
:100320006168e100010032000086eb000b0007006d
:1003300019c7ba001905ba000e04e00003003a001c
:100340000a00e000dbff3a0000000600fe07b200f2
:10035000ae0288008a047800f5ff37000cd0a300b5
:10036000e20f4d001c00390089027800354dba00bb
:100370000a05e800020039003420ec000af0a00071
:100380008b05e9000f003200254dba000a05e80090
:10039000020039003420ec000af0a0008b05e900cf
:1003a000080032000c00e0000600320015cdba0053
:1003b0000a05e800020039003420ec000af0a00031
:1003c0008b05e9008984e80054a0b4000b00e0002c
:1003d000e2ff3a00000006009902ba00055d7800cd
:1003e0008b05e900f7ff3200c82ade00055d7800c2
:1003f0008b05e900f3ff32000c00e000f1ff320052
:1004000019ddba00eeff37001607040000000000f7
:100410004e1704000000000000000400000000006f
:100420003600f800809fbe00829fbe00849fbe0001
:10043000869fbe003200f8003400f8001000200053
:10044000a001880000202000900188000200fa002e
:100450000040eb00004f7800360037001e80fb00a4
:100460006a00b90080007800c08820000080400049
:10047000100078000000e0002d0032001e81fb001b
:100480006a10b90000007800e6004000c088200033
:10049000008040001000be0061004000e080480085
:1004a0006a11b9008201780022892000028141008e
:1004b0000089be001e80fb006a00b90000007800c1
:1004c000e6004000c0882000008040001001be000f
:1004d0001e80fb006a00b900000078008080e80000
:1004e000c0882000008040001000be00800f510036
:1004f000818f59000e003a001e80fb006a00b9008f
:1005000080007800c0882000008040001000780043
:10051000000001001e80fb006a00b9008000780026
:1005200020892000008140006000b8000089be00e2
:100530001e4fe8001e407800e94f5000c7ff36000c
:100540008900a9000080fa003400f9003200f900a7
:100550004f03be004f02be004f01be004f00be0061
:100560003600f900004006003200f8003400f800c0
:10057000881f780018002000a801880008202000ab
:10058000980188004f0478000000fa008020a9003c
:10059000ffff37003200f8003400f800881f7800b1
:1005a00018002000a8018800082020009801880079
:1005b0004f0478000000fa008060a900ffff3700b8
:1005c0003200f8003400f800881f7800180020007e
:1005d000a801880008202000980188004f047800b6
:1005e0000000fa008040a900ffff37003200f80049
:1005f0003400f800881f780018002000a801880047
:1006000008202000980188004f0478000000fa00bc
:100610008080a900ffff37000040da000000fe00e4
:100620000a00fa0011002000b1bf9f00c0bf9f0068
:100630006a8057001a0b07004fb897000080fa0035
:10064000000006000a00fa0051002000b1bf9f0020
:10065000c0bf9f006a805700130b07005fb8970068
:100660000080fa0000000600889fbe008004780029
:10067000704c80000000e00004003a000e0007000b
:100680000084eb000000e00008003500784c80009a
:100690000900e000050032000900440006000700e0
:1006a0000000e00001003d000084eb00080078003d
:1006b0004f04be0000000600800078000100e0004a
:1006c00003003a0000002000704c88000000050084
:1006d0000080eb0002002000828f500002003e00ec
:1006e000714c88000000eb00000006000600fa00d4
:1006f000000f780011079800220798001e00900054
:10070000ae009000101407002e0090000080fa0048
:10071000000006000000050003f0a200889fbe0054
:100720008a9fbe008c1f7800ca000700d1003300ea
:100730006450e1004f0032006420e10052003200ba
:1007400003826c0007003b000905d0000306d000bf
:10075000820f54000c065d000200390002003200d6
:1007600089017800030678008582550004003d0069
:100770000003fd008103fd008502ea008b85420035
:10078000840f720002003b0060001000e08018003f
:100790006011b8000005eb007a28e1000a0039007a
:1007a00006007800c75ddd00f707b200878075009e
:1007b0002d003700828171000a0178006105600018
:1007c0008180d1000080d3008502e900f9ff3b0061
:1007d000060440008784480002003b0060041400c7
:1007e000e0841c000988a300070032008a817100a0
:1007f00082817100610164008904d1000884d30002
:100800008b05e800170037000978a30013003a00b1
:100810000b00e000130034008b05e90008044400dd
:1008200089844c000a4474000978a3000d003a0042
:100830000b00e000070034008b05e90008044400c9
:1008400089844c0001003a000b0020000978a300c5
:10085000f7ff32000001eb000200370082817100d7
:100860000a017800550007000cf0a70001f0a00075
:10087000890037006420e10002003a00838f6c0099
:10088000890033000801be000200be00820037006c
:10089000889fbe008a9fbe008c1f78006d000700f5
:1008a0007400330003866c006450e1002e003200b7
:1008b0006420e100330032006150e1002f0032007b
:1008c0006120e1003100320085855500eb07b00062
:1008d0000900200008042000050037000804440037
:1008e00089844c000a0031000603430087834b00d3
:1008f0000001530081815b00f8ff33000203be005a
:100900000800a0000804440089844c00f6ff390068
:10091000c639dd008301730001003200130020009e
:100920008904d1000884d3000998a300050032008f
:100930000800a7000300a0008904d1000884d300a8
:100940008b05e8008904d1000884d3000001eb0086
:100950000281d2001900070001f0a1000cf0a700ed
:1009600001f0a0004c0037006420e1004e0032008e
:100970000801be000200be00f7ff37006120e10061
:10098000490032006000b800f3ff3700000020008b
:1009900001f82700f0ff370014002000790037002d
:1009a000f4ff2f00770037004f89de0082017800c6
:1009b0008f0037006011b8009d00370081002000d3
:1009c000618055000b003d000b00200061fe2f00f0
:1009d0000100e1001d0034008281710061016400aa
:1009e0008904d1000884d3000000e800faff3a002f
:1009f00071002000610064000300700002006000cc
:100a00000900320061044400e0844c000988a5001c
:100a1000050032008b05e8006808e10002003a009a
:100a20008904d1000884d300f20f20000258e100ad
:100a300005003d00c75ddd00f907b2008980750043
:100a400008007800000006000bf827008b007800f3
:100a5000000005000004be00a40007000003be0063
:100a60000405be000200be00a0000700844f750010
:100a7000000006000200be006450e10005003600e0
:100a80006420e100020036000968a30001003a007a
:100a90000800be000160a0004f0678004f05be00b0
:100aa0004f04be0000000600f0ff2f00f1ff2700fa
:100ab000f9ff3700889fbe008a9fbe008c1f780018
:100ac000e4ff0700ebff330003866c006450e10095
:100ad000240032006420e100270032006150e10070
:100ae000220032006120e100210032008b854200ab
:100af000eb07b1000134b800003ab8000804420026
:100b000089844a00013ab8000030b800888040006b
:100b100009014a00040033000000400081804800c1
:100b2000020149008b05e900c909dd00830170005d
:100b30000100320013002000c814de004814dd005c
:100b40004709de001200b200c808de000884700009
:100b50009aff070001f0a1000cf0a70001f0a0002f
:100b6000cdff37006120e100cfff32000801be0059
:100b70000200be00f7ff37006150e100fcff3a00c1
:100b8000c9ff3700889fbe008a9fbe00841f78007f
:100b9000b0ff07004f00780011003300f0ff2f0076
:100ba000838f6c0006003b00040565000a00a70067
:100bb0000800370009f0a6001000200008003700e8
:100bc000820f5400838f5c00030039001000200066
:100bd00001003e000000200009f0a7000000ea002c
:100be0004f05be004f04be000000e00000000600fc
:100bf000881f7800030478000300e00007003d0030
:100c000060001000e080180060011900e081190008
:100c100002003b0001f02d00030037000400070034
:100c200008f0a70001f0a0004f04780000000600c3
:100c3000889fbe008a9fbe0000827000040271007f
:100c400004827100260032000004be000200be00d3
:100c50006011b8006b092000950220000182cf00ce
:100c60000a0039000541b1000082cf0007003900b9
:100c70000541b1000982cf00040039000541b100ef
:100c80000882cf00010039000541b1000542520041
:100c9000120032000a003b00828171006101640091
:100ca0008100d1000080d3008984d3000884d30060
:100cb0008b05e8000442e800f7ff3a000700370020
:100cc0000804440089844c000000480081804800ea
:100cd0008b05e9000442e900f9ff3a0037ff0700fd
:100ce0004f05be004f04be0000000600c70ade002c
:100cf000f107b200f50fb20008003200e1cf420068
:100d0000020032000170a00024000500810f700075
:100d1000010032000408050044000500810f700046
:100d200002003a00140005008502e90000004000be
:100d300081c04800fcff3b000170a00024000500ba
:100d40008001780002003700815978000201e90033
:100d50000200e000fcff3a0000000600c182200013
:100d60000b003700c1822000bd040700800078001e
:100d70000080eb000100e00004003500c18220008b
:100d8000a0002000020007004f80de0000000600e7
:100d9000889fbe008a1f78000004be00c900900032
:100da00069009000808f500006003900090078002b
:100db00089050700800078000080eb000100e0005a
:100dc0001700350008457800490090000858780061
:100dd000c00498001900780000b8a30004003a008d
:100de00000a8a30008003200ea4f540006003a00b1
:100df000090078005f040700800078000080eb00a5
:100e00000100e00006003a0000c020001900600068
:100e10000200320049009000e00498000a80fb00c4
:100e20004f0578004f04be0000000600889fbe00fa
:100e300000047800010078008204780088017800be
:100e40000901780011002000cd040700890f50002f
:100e5000010032000004eb00080078004f04be00df
:100e6000000006000000fa00e88157004fb9970023
:100e7000c182200060712000020007000080fa009b
:100e8000000006006200fa00889fbe008a1f7800fa
:100e9000000578008104780002047800830078005f
:100ea00080f92f000f004000a70707009a979f00c6
:100eb000a9979f000000eb00b09f9f001885fb00e2
:100ec0008a04fb000a05ea004f55de0050022000ac
:100ed000808f54000d003200e10f55000b003a00e6
:100ee0000a017800880078002f9097009f91970062
:100ef00003000100a0979f000000e0008e00320078
:100f00003f9897000000e800b09f9f000a0444004b
:100f100050022000808f5400040032000900e000dd
:100f2000e6ff3a003f989700840037000000eb008e
:100f3000909f9f00809f9f00f0979f00e0979f00e9
:100f4000d0979f00c0979f0007003700e1972000cf
:100f5000010050000000400021972000610078004f
:100f6000df98970001007000d09f9f0088047800f0
:100f700009047800384578008a00fb00e0972000db
:100f8000f90407000000e000f0ff3a00a1c2b3003e
:100f9000814f55000e003a00cf8897000180e9008c
:100fa000c08f9f0010007800c09f9f000000e000ed
:100fb00005003d000000ea00c09f9f005f98970079
:100fc0000020a000d09f9f000904e8000f00370018
:100fd000c09f9f000000eb0005003700f2ff2700d4
:100fe000820f5000020032006a01b9000280400006
:100ff0000904780088047800b900fb000103b100ff
:10100000e98f5000f5ff3600c09f9f00e0c2b3009b
:10101000984f1000020032000080eb0019003700ea
:10102000a0c2b300d84f100007003a00cf88970045
:101030000180e900c08f9f0010007800a09f9f00f2
:101040000804e800100037000000eb00a09f9f009c
:101050008800780005003700f3ff2700830f500059
:10106000020032006a02b900040041000104780065
:10107000880078003101fb000203b100e90f510044
:10108000f5ff3600a09f9f00984478008900fb0080
:10109000a0962000b40407000000e0000200320027
:1010a0000804e800010037008044eb00c97f9f007e
:1010b00080c6b30080cf540004003a0098cf1400db
:1010c0000a003a006640500006003700c0c6b30070
:1010d00080cf540005003a0098cf140003003a0076
:1010e00065404000c07f9f000804e8001801fb0035
:1010f000e3fb2f008f81410081f92f008f8040009a
:10110000a0f92f000f004000100007000000e000d1
:1011100009003a00e1fb2f008f804000a0f92f006a
:101120000f0040004c0607000000e0000200350000
:101130000804e80061ff37000080eb004f057800ed
:101140004f04be000080fa0000000600889fbe0029
:101150008a1f780000047800824478000305780034
:1011600070c6b30080cf54001a003c0000c0e900f4
:1011700080cf5400cd003d006d40500080cf540022
:10118000770032000b003c007140500080cf5400cb
:1011900035013c0000c0e90080cf5400c3003d0091
:1011a00050c2b30080cf54002c0132007c4040007c
:1011b0000500370030c6b30080cf54001a0032005b
:1011c0001e003c0000c0e90080cf540026013a0018
:1011d000b6003700f0c6b30080cf54006000320084
:1011e00007003c006640500080cf540013003200de
:1011f0006540400080cf54001b013a00d400370006
:1012000050c7b30080cf5400550032006340400007
:1012100080cf54005200320002c7b30082cf540086
:1012200011013a00ff0037001181e90082087800bf
:101230007800900012757800110137002860900046
:10124000c2c6b300824f500007003a001101780077
:1012500064005100800878001000be004f89de0055
:10126000820178001400370012c7b300824f50008b
:1012700003003a00110278006800520005003700b0
:10128000a2c6b300824f500006003a0091027800d7
:1012900068805200800878005001be004000be0007
:1012a000050037001180e900800878001000780000
:1012b000cf80de006109b900009cbe000294be0030
:1012c0002862900085c6b300854f52000d003200a1
:1012d00025c6b300854f520004003a000000fb0011
:1012e000cf80de006109b9000800370045c7b300b0
:1012f000854f520003003200e6c24200854f520083
:1013000004003a00cf80de006109b900009cbe00f5
:101310000294be003802be002803be007800900090
:10132000d1c2b300e00f5200e08f5a00e00f5b0023
:10133000e08f5b0008003500881090000118a300c2
:1013400002003200b1c2b300030037000108a3005d
:101350005100320001c2b300017578004c00370023
:1013600028609000c2c6b300824f500008003a00c7
:101370001103780064005300800878001002be005a
:101380006033b8000400be000601be001400370040
:1013900012c7b300824f500003003a009102780058
:1013a0006880520005003700a2c6b300824f50008b
:1013b00006003a00110378006800530080087800a6
:1013c0005001be004000be00050037001180e9005a
:1013d00080087800100078008000eb006011b800f1
:1013e000009cbe000294be002862900085c6b30037
:1013f000854f52000d00320025c6b300854f5200c4
:1014000004003a000080fb008000eb006011b8008f
:101410000800370045c7b300854f52000300320073
:10142000e6c24200854f520004003a008000eb0003
:101430006011b800009cbe000294be00081090002d
:101440000038a300140032003800be002801be009e
:10145000e00f5000e08f5800e00f5900e08f590076
:101460000d00320080c7b30080cf5400030032006b
:1014700080c5b30080cf540007003a007800900088
:1014800001c3b300017578000000e8000975780019
:101490000000e80070049800780090000005450006
:1014a0006a0498008940780069003700286190003c
:1014b000c0c4b300804f510006003a009103780089
:1014c00068805300800878005001be004000be00d4
:1014d0000500370011017800640051008008780091
:1014e0001000be002a080700009cbe000294be0047
:1014f000b8009000780090000100e00002003d007c
:10150000d1c2b30008003700881090000118a30072
:1015100002003200b1c2b300030037000108a3008b
:101520000400320001c2b300017578000000e80039
:101530007004980078009000000545006a04980047
:101540008900fb0008007800530007004e003700b8
:1015500028619000c3c6b3001180e900834f510099
:10156000240032000a003c00e4c15100834f5100c6
:101570002700320083c1e800834f5100150032007c
:1015800020c6b300804f510020003a000a00370007
:1015900043c7b300834f51001d003200e6c1410034
:1015a000834f51001a00320010c7b300804f510022
:1015b00016003a00060037001180e9008008780024
:1015c00010007800485c9000084878002e00370032
:1015d0001180e9008008780010007800680a900007
:1015e000cfa2de00612bb9000498be000690be00b9
:1015f0002500370080087800100078006809900006
:10160000cf91de000288be001f0037001180e90084
:101610008008780010007800680c900008087800b6
:10162000190037001181e900820878001202780061
:10163000cfa2de00612bb900049cbe000694be0060
:10164000f8009000010545006a0498008040780089
:1016500008007800d10307000b00370078009000e5
:1016600009757800060037007800900000054500f5
:101670000904e00001003a0059c2b300094d7800a6
:101680000000e800700498000000eb004f057800af
:101690004f04be00000006002f04b000889fbe006b
:1016a0008a9fbe008c9fbe008e1f780000077800c6
:1016b00081f79f003e04be002e05be005e0890002c
:1016c0000000e00002003d0060002000500f980084
:1016d0008e00780020fb2f000f00400085030700dc
:1016e000e20f50000a003a0030002000100f98006e
:1016f000b1c9b3000ff0970081404000408f200037
:10170000e1cf50000d003e00008f20000b0037009d
:101710000000e0000f00340030002000100f98009f
:10172000b1c9b3000ff1970081404100c08f200084
:10173000e1cf500001003e00808f2000ee009000bd
:10174000b0487800b0687800104078009040980069
:10175000f30037000000e00005003a0022fb2f00f4
:101760000f014100001978008001eb00e70037000d
:101770006022b8006033b8000800be000a01be0055
:10178000cb0607000000e00001003d000bf0a200c6
:10179000705927009f9897000088b900026a2800b6
:1017a0001300200026070700640650009c9f9f003e
:1017b00013003b0063061600c0ff2f000006660002
:1017c0008c01ea00939f9f000d9020000800be004e
:1017d0000a01be00070037000c08a3000300320016
:1017e0003d02be002d03be00b70707000c86d100e6
:1017f000e88646000c00e000f7ff3c0018003700c8
:101800000c00e00018003200c0ff2f000006660048
:101810009c9f9f000d9020006000b80002002000f7
:1018200003ff2300070037000c08a3000300320069
:101830003d02be002d03be00a30707000c86d100a9
:10184000e88646000c00e000f7ff3c000002be0006
:101850000203be000800be000a01be009e0607008b
:101860000004be000205be00de08900060c6b300a2
:101870000ff29700804f52000400320060002000f9
:1018800062c4b300824f520002003a009f9a970050
:101890006a80420081004000f1b79f000103780098
:1018a000f30f53000200340037012000f7b79f0008
:1018b00000c3b300c0779f0056fb2f000f03430007
:1018c0000e007800a0b79f00060778003d003700a3
:1018d0000800be000a01be004c0707000006be005b
:1018e0007fb1970068015100f2b79f004240a90004
:1018f0000c003400710707000002be000203be00a6
:101900000800be000a01be00e50707006022b8001b
:1019100046782d00771924006b0707000004be00ed
:101920000205be00e80047008e0020000802be004d
:101930000a03be00b4b79f00c5b79f00d6b79f008b
:10194000e7b79f000c01be00010478000c003700cf
:10195000a400200005002000c0fd2f000f00400063
:101960005b0207006fa89700ffa897000fb19700d0
:101970009fb1970005c3b300056441000001be009c
:10198000e00f5100e08f5900030034000e07e9001a
:10199000e10f4700eeff3a00880078003fb497005f
:1019a000cfb497005fb59700efb5970002003700fe
:1019b00000c3b300806078000e07e900fcff3b0025
:1019c000688740007fb397000600e00007003400fe
:1019d0006022b8006033b8000800be000a01be00f3
:1019e000380607000000e000b9ff3c000e03780055
:1019f0002fb7970051fb2f008f8040000103530049
:101a00009f9b970067804300909f9f0002003700d4
:101a10000603e9000000e900010178008200780077
:101a200003c3b300b1cf1100f9ff3200909f9f00b4
:101a3000de09900061c6b3000ff29700814f52009b
:101a40000300320061c4b300814f520002003a002b
:101a50000000e8000a0037001000200051c6b30063
:101a60008ff2970081cf52000500320005407800c8
:101a700050c4b2000080fb000000e9004f00de000f
:101a800083014000868f51000100340086017800f8
:101a90000300e0001d00350000c3b300868f510035
:101aa00006003d0062c279006940400041c3b300b6
:101ab000814f520001003c00694050008300e90062
:101ac0008100410001003700840178000302e90031
:101ad00001037800a142780080cf5200faff320063
:101ae00091c3b300814f500001003a00054be8005c
:101af0000400e00005003d000201e9008301e80068
:101b00001f9b97000603e800969f9f008ff39700a6
:101b10008700fb001f9a97000e0078000600070060
:101b20004f0778004f06be004f05be004f04be00b1
:101b30002f04b10000000600f0874700889fbe0018
:101b40008a9fbe008c9fbe008e1f78000004780024
:101b5000814478000205be00040678000b00e00016
:101b600002003c001b0020008a98200060c6b300e1
:101b700080cf54000e00320060c4b30080cf540008
:101b80000b00320070c6b30080cf54000300320057
:101b900070c4b30080cf540081003a00e40f4600c7
:101ba0007f00350058089000800f56007c003d00f3
:101bb0000c06e80060c6b30080cf5400100032006d
:101bc00060c4b30080cf54000d00320008109000b4
:101bd0000038a30004003a0058089000808f550098
:101be00001003d005b0c9800580890000c0050006c
:101bf000500c980002003b000000eb00500c9800d5
:101c000018089000e80090000c00e00026003c005e
:101c100002c3b300827078000000e800100c980046
:101c2000d80890000100e00003003c0088109000fc
:101c30000138a30005003200e8009000e2c2b300c2
:101c4000827078000000e800100c9800580890009e
:101c50008c00ea00810f500001003d000006ea0000
:101c60008c00ea00210c9800000646005c0c9800ed
:101c70008b0f5600010034000b0678003c0c9800d6
:101c8000e800900018089000008040000c017800e7
:101c90008a007800ad010700580890000c0650003b
:101ca0004c0c9800900037008c8f550018003d00b8
:101cb000008040000b0178008a007800a301070033
:101cc0001808900000804500100c98008b05560005
:101cd0002b0c9800d80890000100e00003003c00a5
:101ce000881090000138a30006003200e800900040
:101cf000e2c2b30082707800380890000000e8006b
:101d0000300c980058089000400c9800760037007e
:101d1000008040000c0178008a0078008b010700e9
:101d20001808900000004600100c98008c855500a3
:101d3000d80890000100e00003003c0088109000eb
:101d40000138a30005003200e8009000e2c2b300b1
:101d5000827078000000e800100c9800580890008d
:101d6000808f55000100340080057800e800900065
:101d700018089000008040008c0045000b0178009e
:101d800072010700180890000b004000100c98002a
:101d9000580890008b0550002b0c9800520037001b
:101da00018089000e80090009a7078000000e800a1
:101db000100c9800d80890000100e00003003c00df
:101dc000881090000138a30005003200e800900060
:101dd000e2c2b300827078000000e800100c9800a6
:101de000580890000000e000100034008b05e90066
:101df000808f55000100340080057800e8009000d5
:101e000018089000008040008a00e8000b0178006c
:101e10004e010700180890000b004000100c9800bd
:101e2000580890008b0550002b0c9800e80090009b
:101e30001808900000804000095878000007e8006a
:101e40000c00e00004003500b1c2b3000148780086
:101e50008e04780004003700d1c2b3000148780036
:101e60008e0478000c06ea007d8557008006eb00a2
:101e700009003700a20020008c0078007280570013
:101e8000310007007fb097008fb89700016d780090
:101e9000000678008d06e8000c00e000f5ff3c002d
:101ea0000d00e00009003a008e04780000c3b30082
:101eb000805c7800050037008d06e900fc80570043
:101ec00061c07e0002c3b300825c40000d00e000f0
:101ed000f9ff3c00e80090001808900000804000e6
:101ee00080845400390c9800081090007400600041
:101ef000f00f50000e003a00980890007800900013
:101f000000804000a808900001004000b808900040
:101f100001004000c808900001004000f80890004f
:101f2000810f500002003d0000805000000c98001e
:101f30004f0778004f06be004f05be004f04be009d
:101f40000f01b10000000600800278000103780054
:101f5000110009000203d80080017800830a78008c
:101f60000299b9000201530092029800050078001e
:101f700000000600889fbe008a1f780000047800d9
:101f80000800e0000d003a00a8872000700544001a
:101f90008004eb00580078000000e00004003200ec
:101fa000f4ff07000000e00001003d008084eb002a
:101fb0008a0f5400f7ff3a00250037000000220086
:101fc000180060008004eb0021003200a80490009b
:101fd0000f00370009015100384090000000fb005d
:101fe00089007800c1f907000000e00007003c000c
:101ff000280090004004980060049800500c98005d
:102000001890a0008084eb00110037008084440009
:1020100048019000828f5400eeff390028009000a4
:10202000400498009800780002c0200002816000ff
:1020300001003a003800900001e8a30002003200dd
:102040006004980001003700500c98008004eb00f9
:10205000090078004f0578004f04be00000006001c
:10206000889fbe008a9fbe0080047800010478002b
:102070002c003700c800900068009000808f50004e
:102080000400390008007800d30007000000e000d9
:1020900037003500004020001800600009003200c1
:1020a000a100200009007800c10007008005780029
:1020b0000b00e00003003200618514000a85450032
:1020c0000400370009007800b3000700000578001d
:1020d0008005eb0048009000e800900080805000f0
:1020e0008a8f500002003100010578008005eb0066
:1020f0000a017800890078009400070048009000e9
:102100000a004000400498000b00e0000400320088
:102110000800780097ff07000000e00014003a0074
:102120008a8444001904e000d2ff3a0000802000b5
:102130001800600006003200080078008dff0700dc
:10214000800078000080eb000100e00009003a0008
:1021500001c02000988060000000eb000500320004
:1021600048009000600498000000eb000100370078
:102170000080eb004f05be004f04be0000000600cb
:10218000889fbe008a9fbe008c9fbe008e1f780075
:1021900000067800010478000200780083047800cb
:1021a0000881b900020778000200e0004200320016
:1021b0000800e0004100320082057800c90090006c
:1021c00069009000808f50000400390009007800f9
:1021d000810007000000e0002900350000402000d9
:1021e000190060000a0032000b017800a1002000f5
:1021f0000c0078004b000700800678000d00e0001e
:1022000006003200610516000a854600040037000a
:102210000b0578008006eb00010037000b05780005
:1022200049009000e9009000808050008a8f5000a3
:1022300002003100010578008006eb000a017800f9
:102240008c007800410007008a8555004900900005
:102250000a004000c00498000d00e00004003200b5
:102260000900780043ff07000000e00004003a0086
:102270000b00e000020032000a064600cfff3700e4
:102280000080200019006000020032000900780080
:1022900038ff070000c02000190060000200320073
:1022a00049009000e00498008b05570011000900d8
:1022b0008885d800010037000000eb004f07780048
:1022c0004f06be004f05be004f04be0000000600d2
:1022d000881f78008a9fbe008c9fbe000004780093
:1022e0000205be000406be000401be000a00be00d6
:1022f00053040700008cbe000c01be007d050700e2
:102300000005550081855d002a0498003b04980073
:10231000080078004f06be004f05be004f0478004d
:102320000000060003003700b0cf100005003200a7
:102330000201e900800178000200e000faff3a00a3
:10234000000005000300780000000600800178000e
:1023500002003700b15978000201e9000200e000f4
:10236000fcff3a0000000600020037000304e00012
:10237000060032000001780002007800b0417800c9
:1023800081cf5100f9ff3a00010037000001eb0056
:10239000020078000000060080007800010178004b
:1023a0003104e000fdff3a0000005100000006008b
:1023b0000001eb0000027800b041780081cf5100ad
:1023c00001003a00040178000304e000f9ff3a003c
:1023d0000200780000000600889fbe008a1f780077
:1023e00000047800c8009000680190000000eb0035
:1023f000828f50003c00390018007800220029002c
:1024000002016000e20f51000700320001202400a9
:102410000000e00001003d0001202000008c700061
:102420000080eb0030003700020026000200600050
:10243000820f500009003a0038009000808f500051
:102440000600390008007800cafe07008000780006
:102450000080eb000100e00023003a00180578003e
:1024600000c020000000650018003a00a804900099
:102470006002200008004000808f540013003a00e2
:102480000020200052030700200498000000e00014
:1024900005003a0029049800490498008904e800de
:1024a00039049800080037000a60a0000a0c780080
:1024b00040049800012020008080400031049800f2
:1024c000400c9800500c9800230207002800900050
:1024d0005004980038009000600498000000260026
:1024e000180c70000000eb004f0578004f04be0090
:1024f00000000600889fbe0000047800e6844000cb
:102500001900d0004500de00f27f2000820f50004d
:1025100010003a00000ceb00990478006f81640011
:10252000200020001b003a00210190000200e00082
:1025300018003a00110190000200e00015003a0076
:10254000100020001100e0001200320020002000e6
:10255000100037000000e00004003a00010078009d
:102560006a0207000000e00008003c00f2002800ba
:102570001901610001fe2300810c710021c02f00b0
:10258000010c40000080eb0002003700000ceb0063
:102590000000eb004f04be0000000600fc8747006f
:1025a000889fbe008a9fbe008c9fbe008e1f780051
:1025b0000006780080c5b30080cf50000a003200ca
:1025c0007740400080cf50000a0032006940400050
:1025d00080cf50000b0032009095200080bf9f00fc
:1025e000ae0020000a0037008294200082bf9f00c6
:1025f000060037009395200083bf9f008e002000c7
:10260000030037009495200084bf9f000e01200036
:102610003c02be002c03be000605be000404be0042
:1026200040c6b30080cf5000030032006540400038
:1026300080cf50000b003a00e00f5200e08f5a00ac
:10264000e00f5b00e08f5b0006003d006000b8001b
:102650006011b80004045000858458000605590034
:1026600087855900e80f5700040032004000200021
:10267000f00f570038003a0001003700300020000a
:10268000e00f5400e08f5c00e00f5d00e08f5d0024
:1026900004003a00dc0890008d0120000100e000f9
:1026a000060032008e00e900888060008fba970033
:1026b000e5c07800f1ef9f007d01200080007800e8
:1026c0008100e900050033008b05d1000a85d300a5
:1026d0008984d3000884d300f9ff3700089ebe0028
:1026e0000a96be00120037008d06e9008e00e90050
:1026f000848060000fb99700e2c1780082fd2f004e
:102700000f01410003f17e00800078008100e900a4
:10271000050033008783d1000683d3008582d30070
:102720000482d300f9ff3700049ebe000696be0067
:102730003c02be002c03be00e00f5200e08f5a00a6
:10274000e00f5b00e08f5b008b0034000d00e000c9
:10275000e5ff3c00880037002c60900081c6b30084
:10276000814f50000b00320006003c000004e000e6
:1027700008003200e6c05000814f50004e003a0081
:1027800004003700c1c6b300814f50004a003a0030
:10279000210037000800e00004003a005c089000c7
:1027a0008d0120000000e000060032001100090049
:1027b0000e84d8000fb99700e2c07800f1ef9f00b7
:1027c0007d012000110009000e84d8000a003700a6
:1027d000110009000e04d8008d06e9000e81b90031
:1027e000020454008fb8970061417c0081fd2f00e6
:1027f0008f80400082f07e00000478000800e00036
:10280000020032000d00e000f1ff3c00cfc4de000a
:10281000614db90025003700e00f5400e08f5c00e7
:1028200004003a005c0890008d0120000000e000e8
:10283000070032006171b9000800be002a040700d9
:102840008fb99700e3417800f3ef9f007d012000ee
:102850006171b9000800be00130407000b003700c7
:102860006171b9000800be00f50207008d06e9009d
:1028700000f1b900020454000fba9700e4427c0052
:1028800084fd2f000f02420005f27e000004be000e
:10289000e00f5000e08f5800020032000d00e00011
:1028a000efff3c004fcdde008a057800089ebe0099
:1028b0000a96be0030003700e00f5400e08f5c0045
:1028c000e00f5d00e08f5d0004003a005c089000be
:1028d0008d0120000000e000090032006172b900a3
:1028e000612bb9000800be000a01be00a704070062
:1028f0000fba970064427800f4ef9f007d0120003a
:102900006172b900612bb9000800be000a01be0067
:10291000970407000d0037006172b900612bb90000
:102920000800be000a01be009c0407008d06e900f5
:1029300000f2b900040454008fba970065427c008d
:1029400085fd2f008f82420084f27e00009ebe0033
:102950000296be003c04be002c05be00e00f5400f1
:10296000e08f5c00e00f5d00e08f5d00020034004e
:102970000d00e000e8ff3c00e80f570010003a00af
:102980000c1090000038a3000d003200f78f5600a5
:1029900006003e0085fd2f008f824200e5c07e00cc
:1029a00000c3b30080cf5000050032008d06e9005f
:1029b00002c3b30081fd2f008f80400082f07e00b3
:1029c00078811600120e98006c00900083fd2f0095
:1029d0008f8141008d8041005cfe07001c08900043
:1029e000dc089000810f500006003d000080500080
:1029f000000e98000c1090000040a10000169800f6
:102a00000f0037000100e0000d003d008c10900029
:102a1000f4806000f08f500009003a007c099000bb
:102a2000fc009000810051000c0990008280500051
:102a3000008050004240a90001003400000e9800c0
:102a40004f0778004f06be004f05be004f04be0082
:102a5000cf01b100000006000400fa00889fbe000c
:102a60008a9fbe008c1f7800000478000106780061
:102a7000f80d9000780090008085550008089000bf
:102a80008085550018089000808555002808900022
:102a900080855500380890008085550048089000d2
:102aa000808555000002220090bf9f000003230094
:102ab000a0bf9f00081090000028a30015003a0056
:102ac0000b00e000130034000b0578008a04780046
:102ad000e20f55000100360029002000c8019000d7
:102ae00009017800ee8057005800900003000100b3
:102af000500498000000e0008c003200680890004c
:102b000009004000600c9800090555004240a900ea
:102b1000eeff3c00780190000200e0000c00340061
:102b2000c80190008c00780058009000030001005c
:102b3000500498008080eb000000e0007c00320030
:102b4000e80890007800900000804000600c980039
:102b5000880c90000900e00011003400090578009d
:102b6000e28f5400010036002a002000c8019000c6
:102b70000a017800ec805700580090000300010023
:102b8000500498000000e0006800320068089000df
:102b90000a004000600c98008a845400edff370062
:102ba000180990000200e0000c003400c8019000f9
:102bb000e8009000580090000300010050049800c5
:102bc0008080eb000000e00059003200e80890002f
:102bd0001808900000804000600c9800a80c90003d
:102be0000900e0001100340009057800e28f54006c
:102bf000010036002a002000c80190000a01780078
:102c0000ec80570058009000030001005004980029
:102c10000000e00045003200680890000a00400013
:102c2000600c98008a845400edff3700380990004a
:102c30000200e0000e003400e80090001808900048
:102c400080804000c80190005800900003000100ff
:102c5000500498008080eb000000e0003400320057
:102c6000e80890003808900000804000600c980050
:102c7000c80c90000900e00011003400090578003c
:102c8000e28f5400010036002a002000c8019000a5
:102c90000a017800ec805700580090000300010002
:102ca000500498000000e000200032006808900006
:102cb0000a004000600c98008a845400edff370041
:102cc000081090008000eb000028a30018003200dc
:102cd0000b00e000160034008b0478000905780032
:102ce000e28f5400010036002a002000c801900045
:102cf0000a017800ee8057005800900003000100a0
:102d0000500498000000e0000800320068089000bd
:102d10000a004000600c98008a8454004240a900d8
:102d2000eeff3c008000eb00010037008080eb00ec
:102d3000010078004f0678004f05be004f04be002a
:102d40000080fa000000060001087800000006007c
:102d5000e074210061003700881f7800a8982000e7
:102d60001804e00003003a00f9ff070020c0b30098
:102d7000004c78004f04780000000600889fbe00d9
:102d800000047800080078007afc070080047800ce
:102d900000042000180060000200320028009000ab
:102da000a60007000000eb002004980038409000c7
:102db0000004e000050035000000fb0018f60700e5
:102dc0000000e000010032008084eb001810900049
:102dd0000000e000080032001af607000000e000e2
:102de000010032008084eb0018109000930007006f
:102df0000000eb001014980000082000180060008c
:102e0000150032000001eb006000b800c38720000d
:102e10000202d00063027a00880f520005003a00d7
:102e20000000400081804800008041000008eb0065
:102e30000600370061004000e08048000201e80021
:102e4000e80f5000e08f5800f0ff3a0008007800cb
:102e50007a0007000e003700000c780000c0eb007d
:102e600030449800600220000800400020049800d0
:102e70004004980050049800400c980060049800aa
:102e8000500c98007004980076004400000c9800e4
:102e9000090078004f04be0000000600881f78007b
:102ea0000004eb006140b800e2ff2f00f3ff2f00a9
:102eb00090020700a2882000620078000000e00075
:102ec00001003200adff07000804e800e80f5400dd
:102ed000f4ff3a004f0478000000060001002000d3
:102ee0000100e00008003200010080000100e00065
:102ef000050032008100e900010088008100d00057
:102f00000200800000b1780000000600e6004000ea
:102f10001101780005002800850261006f01610041
:102f200082087800020032001200200011003700f1
:102f3000a0019000120020000300e0000d003a0004
:102f4000900190000300e0000a003a001000e00049
:102f500008003a0036003700640340009608780005
:102f600080017800530b78009009780004087800fd
:102f700070015100110278000400e000f6ff3200f9
:102f80001300370064024000140378004f33de0062
:102f9000838141008308730080017800d3037800a7
:102fa000cf3bde001403780006034300068a73005b
:102fb0001302780004024200100378004f33de0051
:102fc0008609720090017800038841000201e9003f
:102fd00091017800ef8f5100eaff360010003700b2
:102fe00080017800530378004f33dd001002d100d8
:102ff000040873006402400094037800cf3bdd00b6
:103000001303d10086897300110378004f33dd006c
:103010009401d100030a73009108d1000201e80075
:1030200091017800ff8f5100edff3e00ef886100b5
:103030009188720002007800000006000000e000a5
:103040002f003200c0017800e38f51002c003600c1
:103050000308a3002a003a00314c80000100e00080
:1030600002003200810f500004003100110098006e
:10307000304c880016003700820078001101900063
:103080000200e00002003200800f5100faff390018
:103090001102780084824000850f5000180039002a
:1030a000808f520003003a0083084200010078003c
:1030b000070037000200e0000300320083014000f7
:1030c000830f51000e003900120098009000980004
:1030d000900090000100e000090032001001400063
:1030e000828f500006003a00429820000009eb0051
:1030f0001001780011084100910090001100980023
:1031000000000600889fbe0000047800214c80006b
:103110000100e00002003200010078000d003700dd
:10312000314c80006098200004003700910f54005b
:10313000250036000180e800910090000100e000c9
:10314000faff3a0010003700920f54001e003600bc
:103150000280e800100178000200e000faff3a0067
:1031600011017800314c8000609820000400370085
:10317000910f5400140036000180e8009100900087
:10318000828f5000faff3a00694c8000888f54000b
:10319000010031008804780009007800360007003b
:1031a0000000e00004003a00888f5400050032005f
:1031b0008904d100f5ff3700091878009fff070048
:1031c000d2ff37000000eb004f04be0000000600f5
:1031d000881f7800630440000800a1008000eb0015
:1031e000800f540021003600e30f540001003e0020
:1031f0004800200008007800c2ff07008000eb00b4
:103200000000e00019003200900078009101780081
:1032100064815100880f51000300310011019000ba
:103220000208780007003700088140000208780093
:103230009101900013019800100178001109140009
:1032400088087800100178000000eb000200e00020
:1032500004003200920190000300e00001003200ff
:103260000280e800204c88008180e800010078009e
:103270004f04780000000600800078000000eb009a
:103280000100e0000500340001007800f6f40700ba
:10329000e10f400001003a000000eb0000000600d2
:1032a00000c0da000000060000c0da0000000600de
:1032b0008f1fd100160307008f87e9000000e00090
:1032c00000000600809feb00110307008f87e900d4
:1032d0000000e000000006002800fa00889fbe0001
:1032e0008a9fbe008c9fbe0003866b008f00070084
:1032f0006400e100440032006408e1004a0032004a
:103300006100e100460032006108e100490032003e
:10331000ec0647006000b8003d02be003d03be0061
:10332000f48657006011b8003d04be003d05be00a4
:103330007d0320000b0037000000a0008d06e9008f
:10334000130032000402420085824a0006034b004b
:1033500087834b0000004000818048000201490043
:10336000838149000802520089825a000a035b00e7
:103370008b835b00f0ff3b000802420089824a0019
:103380000a034b008b834b008d06e900edff3a00ea
:103390008482720086827200f707b2008782720010
:1033a00001003200150020001e0490003e0b90002a
:1033b00006035400e63fb0000368a3000700320094
:1033c0000000a7000500a0008301d1000281d30006
:1033d0008180d3000080d3000603e8008301d10080
:1033e0000281d3008180d3000080d3000002eb0073
:1033f0000482d2002100070003f0a1000cf0a70016
:1034000003f0a0005d003700640247006408e1009b
:10341000570032003400be003401be00f6ff370012
:103420006108e100520032006011b8006000b8008d
:10343000f1ff370003ff270002002000fbff3700e9
:10344000839f68000100e00002003d006000100062
:10345000e08018000300e00002003d006001110060
:10346000e0811900100107004f00e00002003b005e
:1034700060001000e0801800000006001800200026
:1034800057002000080453000d003d0006002000f6
:1034900097fc2f000740e1001e0034008482720078
:1034a000610260008301d1000281d3008180d300da
:1034b0000080d3000804e800f8ff3a00470020002d
:1034c0006104600005047400040464000d0032000f
:1034d00061004000e080480060014900e08149004f
:1034e00003b8a500070032000603e8006538e100d4
:1034f00004003a008301d1000281d3008180d3000f
:103500000080d300f87f20000830e1000300350080
:10351000080378006000b8006011b8004433dd0093
:10352000f300b20083017300000006006804470046
:103530000294be000094be00fc0447008694be00c6
:103540008494be0009007800ba02070008007800e1
:10355000b802070099007800814f70000b003b0013
:103560000800be00930207004f00b10003003700bf
:10357000f3ff2700f2ff2f006110b9004f06be00d5
:103580004f05be004f04be000080fa000000060098
:1035900081037800d5f507000001be006000b80087
:1035a0000478a30013003a006220e10015003e00f9
:1035b0000d0039008301d1000281d3008180d30046
:1035c0008301d1000281d3008180d3008301d10027
:1035d0000281d3008180d3000538b000c42add0009
:1035e000f300b2008381720007f0a70003f0a0008f
:1035f00000000600f3ff2700f2ff2f006110b90062
:10360000fbff370003ff2700f7ff37001400fa0025
:10361000889fbe008a9fbe008c9fbe000004be0033
:103620000205be00680047000a90be000890be0078
:10363000800207000070a7000bf0a10030432000bb
:103640009e02900080825200b0fe2f000028e10010
:1036500011003d00b0fc2f000028e10015003400ef
:103660001e0990008e0890007e0090000501b000b9
:103670000201d1008180d3000080d3008502e800e0
:10368000fbff3a000b00e000bcff3b0060001000b5
:10369000e0801800b9ff3700f0ff2f00f1ff27008e
:1036a0000b00e000b5ff3b000100280000002000f7
:1036b000b2ff37006000b800b0ff37004f89de006e
:1036c00082017800820237002800fa00889fbe003d
:1036d0008a9fbe008c9fbe0003866b0093ff07008d
:1036e0000028a30064003a000128a30067003a0004
:1036f0000008a30062003a000108a30065003a0038
:103700001e009000be08900081064000ed3fb10011
:10371000f4805700ee019000111ab8008e09900055
:10372000311bb8009e099000311cb800511db80033
:10373000f485570046000700fe0190003a0007009c
:103740008b85e8003e0007008e09900040000700ce
:10375000ee019000340007008b85e8003800070078
:103760008e099000400007009e0990001b18b800c9
:10377000890440000a854800fe01900034000700db
:103780008b85e80038000700ee019000300007004c
:103790008e0990001b18b800890440000a85480073
:1037a0000a98a30008003a000402420085824a00f9
:1037b00006034b0087834b0008044c0089844c00af
:1037c0000a054d008d06e9008482720085027300af
:1037d0004c3add0085027200010032001500200025
:1037e000443ade001400b2004538de00cb45dd006f
:1037f0000b007000c540de00cb4ddd008b807000fb
:103800004549de00cb55dd000b017100c551de00de
:103810000d03780019ff070003f0a1000cf0a700ca
:1038200003f0a00055ff37001b18b80085024000c8
:1038300006834800e0834b0060044c00070037001b
:103840001b18b8000603400087834800faff3700c2
:103850001b18b8008703400008844800e0844c002f
:1038600060054d00000006001b18b8000804400069
:1038700089844800faff37000108a3003cff3a00a2
:103880005800be005801be00e3ff37000008a30047
:1038900037ff3a0009047800f9ff37000000000004
:1038a00007f0a2001c0137006022b80006022000c9
:1038b0000000d0008180d2000482d2008582d20034
:1038c0000000a0000202520083825a00030031006f
:1038d0000202420083824a000000a1000603e900c0
:1038e000f3ff3a0000000600efff07000400be00ef
:1038f00000000600020ab900001bb9000200b8006f
:10390000810042008100430000000600889fbe0045
:103910008a9fbe0030044200b0844a0030054b004c
:1039200090854b006000b1000898be000a90be0070
:103930000440e10005c8e10006d0e10007d8e1003d
:1039400002003100680040001008e8004f05be008a
:103950004f04be0000000600889fbe008a9fbe0084
:103960003004be002005be000418540005985c0019
:1039700006185d0007985d00110020000440e1007a
:1039800005c8e10006d0e10007d8e10001003900d8
:103990008000eb00108810004f05be004f04be00f1
:1039a000000006001200fa00889fbe008a9fbe0039
:1039b0008c9fbe00e0b79f00f1b79f0082bf9f00c1
:1039c00093bf9f000605be000404be000000eb008c
:1039d000d0b79f00c0b79f00b0b79f00a0b79f00af
:1039e00090b79f00000678005fb19700cfb09700b6
:1039f000820141003fb097000200e00004003d005a
:103a0000370007007e805700c0ff07000300370023
:103a1000330007007e805700cfff0700dfb6970016
:103a20000d00e0000c0035006fb29700ffb2970068
:103a30000fbb97009fbb97001000200001002000e3
:103a40006011b800000272008182720002037300ec
:103a5000838373001b0007000c06e80001042000ac
:103a6000810f5600e0ff3a000d00e00004003d0029
:103a70000802be000a03be007e805700a3ff0700b5
:103a80005fa897000000e00005003a001fb2970011
:103a9000afb297003fb39700cfb39700090007007c
:103aa0006fb09700ffb097000fb997009fb99700cc
:103ab0004f06be004f05be004f04be000080fa0056
:103ac000000006000100070000000600a4b79f00e8
:103ad000b5b79f00c6b79f00d7b79f00000006008c
:103ae0004f09de0082817100b3b79f004f01de00f5
:103af0008180400082807000a1b79f008fb0970046
:103b00004f09de00000040000200700090b79f00e7
:103b10007fa897004f01de00818040008280700006
:103b200081b79f000d0007004f3ade000000400003
:103b300004007000f0af9f0008000700040242007c
:103b400085824a0006034b0087834b00dfff070096
:103b50000802be000a03be00000006002fb2970054
:103b6000bfb297004fb39700dfb397000000060085
:103b7000881f780018002000881f780089ff070040
:103b80008f87e9004f04780000000600801feb00db
:103b900084ff07008f87e90000000600889fbe00b1
:103ba0008a9fbe00e00f5000e08f5800e00f5900e0
:103bb000e08f59000c003d006044b8006055b8002b
:103bc0000000540081805c0002015d0083815d0083
:103bd000180020001500070008003d00180007002d
:103be0000004eb00050037000004eb000f000700a5
:103bf00002003d001200070018002000dcff070053
:103c00000800e000060032006022b8006033b8000f
:103c10000000520081805a0002015b0083815b003a
:103c20004f05be004f04be0000000600e00f52002a
:103c3000e08f5a00e00f5b00e08f5b0000000600a1
:103c40006044b8006055b8000402540085825c00ee
:103c500006035d0087835d0000000600889fbe00ac
:103c60008a9fbe008c1f7800e00f5000e08f580044
:103c7000e00f5900e08f59000d003d006044b8008e
:103c80006055b8000000540081805c0002015d00b6
:103c900083815d001c0020000820e10009a8e100ec
:103ca0000ab0e1000bb8e1000d003d00080037004c
:103cb0000006eb00e00f5200e08f5a00e00f5b00bf
:103cc000e08f5b0006003d006044b8006055b8001e
:103cd0000402540085825c0006035d0087835d005a
:103ce000aaff07000c00e000060032006022b800c6
:103cf0006033b8000000520081805a0002015b006e
:103d000083815b004f0678004f05be004f04be0064
:103d100000000600000000002800fa00889fbe0096
:103d20008a9fbe008c9fbe000706780087866900c8
:103d30000c003b00030478008704780008f0a10021
:103d400009f0a100840f5000858f5800860f59009c
:103d5000890f5c00030033000cf0a20001003a0060
:103d60000cf0a100f1fd07006400e1005f003200eb
:103d7000780147006408e100610032006c014700ef
:103d8000748557003200be001201be003a04be0026
:103d90001a05be001e039000be0a90008503530062
:103da00006003d000004fd008104fd000205fd0049
:103db0008305fd008703ea00050378000df8a300e2
:103dc0000400320060041400e0841c0060051d0043
:103dd000e0851d006022b8007d0320000d38e10061
:103de0008006eb000b0039004433dd00f300b20025
:103df0008301730039003700848272000d0278005d
:103e0000e10664008b85d1000a85d3008984d30044
:103e10000884d3008703e900f7ff3b000800400057
:103e2000898048000a0149008b81490004003b0059
:103e300060001000e080180060011900e0811900a6
:103e40000358a300090032008d8272008482720040
:103e5000610260008301d1000281d3008180d30020
:103e60000080d3000603e8001b0037000348a300ce
:103e700017003a000600e000170034000603e900ce
:103e80000d00a300000048008180480002014900a5
:103e9000838149000348a3000f003a000600e000b8
:103ea000090034000603e90000004000818048005a
:103eb000020149008381490001003a000003eb0040
:103ec0000348a300f5ff32006022b800020037006b
:103ed000848272006182660068fd070003f0a10021
:103ee0000cf0a70003f0a000a4fd37006401470018
:103ef0006408e10002003a000df8a3009cfd3a00be
:103f00003200be001201be009cfd37000000000020
:103f1000889fbe008a9fbe008c9fbe000404be0026
:103f20000605be00809fbe00829fbe002f000700d6
:103f3000040678000800be000a01be002b0007003e
:103f4000840678004f03be004f02be008d4f7600fe
:103f50007fb0970013003300f0ff2f008b8f6b00b2
:103f600006003b000d0666000c00a7000a003700a3
:103f700007f0a600100020000a003700880f52004a
:103f8000898f5a008a0f5b008b8f5b00030039001a
:103f90001000200001003e000000200007f0a700f4
:103fa0000000ea004f06be004f05be004f04be00f1
:103fb00000000600e48240001078a30007003200f1
:103fc000640240001178a3003400be001401be005a
:103fd000040032000330a700000006003500be00d8
:103fe0001501be000330a0000000060005ff2700f9
:103ff00005826100070032000428e1000100320060
:10400000240005000600070001003a0044000500f6
:104010000408050002000700f9ff3a00140005003b
:104020006f8261008102700085027100850272005a
:1040300000000600800078005002be005003be0061
:104040004439de00f700b200f37f20000301610075
:10405000090032000218e10016003a0085017200e2
:1040600083017300838173000008200015003a006b
:1040700040002000130037008501720083017300a7
:104080008381730005003a0004a8be0006a8be00a4
:10409000100020000b0037000201e900040242007a
:1040a00085824a0006034b0087834b000748a30024
:1040b000f9ff32000740a00004a8be0006a8be0019
:1040c0002000200080009800920098000000060068
:1040d000881f7800030478000300e00007003d001b
:1040e00060001000e080180060011900e0811900f4
:1040f00002003b0001f02d00030037000400070020
:1041000008f0a70003f0a0004f04780000000600ac
:10411000889fbe000082700004027100048271005a
:104120002400320036432000c50020008383cf00e6
:104130000a0039000541b1008283cf000700390031
:104140000541b1008183cf00040039000541b10071
:104150008083cf00010039000541b10085c35300c1
:104160006022b800120032000a003b008482720014
:10417000610260008301d1000281d3008180d300fd
:104180000080d3000603e8008743e800f7ff3a0009
:10419000070037000000400081804800020149000c
:1041a000838149000603e9008743e900f9ff3a00eb
:0c41b000b2fc07004f04be000000060037
:020000040000fa
:1041bc00436f00004c6c0000496e0000205700005b
:1041cc00755a00002068000045720000452100006f
:1041dc000d0a0000436f00004c6c0000496e00009b
:1041ec0020570000755a000020680000457200003e
:1041fc00452100000d000000436f00006f6b0000b4
:10420c00203d000020250000332e00003266000007
:10421c0020250000634600000d0a0000576f0000c7
:10422c006f640000203d000020250000332e0000ac
:10423c003266000020250000634600000d0a0000d5
:10424c000044000065670000462e0000203d000081
:10425c0020250000332e0000336600000d0a0000fc
:10426c00487500006d690000642000003d200000ce
:10427c00253300002e330000660d00000a000000fc
:10428c00546500006d7000006572000061740000e0
:10429c0075720000650d00000a5400006f6f00007d
:1042ac002048000069670000680d00000000000055
:1042bc0000030000030600000104000006020000d9
:0842cc000500000003050000dd
:020000040000fa
:1042d4000200fa00000f780000012800a00c8800fa
:1042e4009021ef00000000001e0078000000400054
:1042f40080007800800c8000808f5000faff3e0020
:104304000080fa00000006000200fa00889fbe0048
:104314008a1f7800000f780000032800000d880031
:104324009621ef0000000000b00c80008000eb003c
:104334009ff107000004be001e007800cf80de005d
:1043440098f1070002002000a3272400d8f10700f9
:104354001ac0b3000001be000800be008df10700c2
:104364000000e000010035000045eb000a04e00015
:10437400edff3a004f0578004f04be000080fa00bc
:10438400000006000200fa00000f78001e0078000a
:10439400c024880000000000f02480007000600049
:1043a4000000e000fcff3a009b44a9009be4a80045
:1043b4000080fa00000006000000fa00a0002000bf
:1043c400c3ff07009a04a80000000000d024800066
:1043d400610060000000e000fcff3a00a000200043
:1043e400bbff07000080fa00000006000000fa008e
:1043f400a0002000b6ff07009a44a80000000000b7
:10440400d0248000640060000000e000fcff3a005b
:10441400a0002000aeff07000080fa0000000600a4
:104424000200fa00004f780000000000f024800031
:10443400610060000000e000fcff3a001e00fb0089
:10444400b0248800f124800000002800008060006f
:104454000000e000020032001e407800f0ff070078
:10446400401f20009aff07000080fa0000000600a9
:104474000000fa009a64a80000000000f024800004
:10448400620060000000e000fcff32009a84a80093
:10449400a00020008eff0700a024800000407800c8
:1044a4000080fa00000006000000fa00c2ff0700c6
:1044b40000ceb300daff070050c3b300d8ff0700f3
:1044c40070c1b300d6ff0700c8ff07000080fa00e0
:1044d400000006000000fa00b7ff070000ceb3009a
:1044e400cfff070000cbb300cdff070080c9b300a6
:1044f400cbff0700bdff07000080fa0000000600a4
:104504000000fa00acff070000ceb300c4ff0700b0
:10451400c0c5b300c2ff070040c2b300c0ff07001c
:10452400b2ff07000080fa00000006004c00fa0009
:10453400889fbe0000f02f00103388006426ef002f
:104544003033230031052400400f9800510f9800a8
:1045540002002000034824004e089000de0890006a
:10456400caf00700600f9800710f980050002000f7
:10457400001798000000eb00100f98000000eb00fb
:10458400200f98000000eb00300f98002709070067
:104594001000200009090700400020000709070057
:1045a40030002000050907000000eb00b1070700f8
:1045b400500120008e070700400120008c070700ef
:1045c400e00420006fff0700c2ff0700b6ff0700ea
:1045d40079ff070000ceb30091ff0700f0ceb300cf
:1045e4008fff070080ccb3008dff070072ff070028
:1045f40010ceb3008aff07009dff07000000fb00f8
:10460400101798009aff07000000fb00201798007d
:1046140097ff07000000fb003017980073ff0700a6
:10462400a00020002aff0700aaff07002e10900018
:1046340020338800c0002000c7f10700e00d2a00e5
:10464400c7f107006426ef00c646a900c846a900c2
:10465400c706a900c906a900010037000000000030
:10466400a00f2000401798008025200050179800c4
:1046740080012000601798001e0890000000e000f0
:104684000700320040368000640060000000e00053
:1046940003003a00c646a900c846a800090037002e
:1046a4001e0890000000e00006003a00403680003a
:1046b400640060000000e00002003200c646a90069
:1046c400c846a9004e109000cf80de00b5f0070068
:1046d40018c0b3002e019000be019000adf0070099
:1046e4000000e000010035000044eb000804e00095
:1046f4000c003a005e109000cf80de00a9f00700a5
:1047040018c0b3004e019000de019000a1f0070034
:104714000000e000010035000044eb000804e00064
:10472400030032000000eb00100f98002000370057
:104734004e109000cf80de009af00700a299290065
:1047440093e12300daf0070018c0b3002e019000b3
:10475400be01900091f007000000e00001003c0061
:104764000044eb000804e0000f003a005e109000e3
:10477400cf80de008bf00700a299290093e123008b
:10478400cbf0070018c0b3004e019000de0190008a
:1047940080f007000000e000010035000044eb0059
:1047a4000804e0000200320010002000100f9800fe
:1047b4002e0890000000e00028003200be0890009f
:1047c40040062000808f500024003a00c706a9004c
:1047d40041368000001020000080600000f0a70037
:1047e4000000ea000000e9004f00de00004078000d
:1047f4000080fb00610060004800dd00413680005d
:104804000180a1000100700040368800401f200094
:10481400bdfe0700413680000010200000806000cb
:1048240000f0a7000000ea000000e9004f00de00ed
:10483400004078000080fb00610060004800dd005b
:10484400413680000180a1000100700040368800dc
:104854000000eb00300f9800060037002e0890008f
:104864000000e000030032003e0890000000e80071
:10487400300f98006e109000cf80de0049f00700e2
:1048840018c0b3006e019000fe01900043f00700d1
:104894000000e00001003c000044eb000804e000dc
:1048a4000300320010002000200f98000e00370093
:1048b4006e109000cf80de003af0070018c0b300fd
:1048c4006e019000fe01900032f007000000e0004d
:1048d400010035000044eb000804e000020032004f
:1048e4000000eb00200f98000000eb00000f7800a0
:1048f4000000eb00100798000000eb00000f980088
:104904000d00370050012000800607001e0f4000f4
:10491400200320006efe0700400120007b060700f4
:104924009e00900000804000100798000e08900040
:104934000000e800000f9800110020000e10900005
:104944008008dd000e089000808f5000edff3c00d1
:104954009e0078000e1090000008de00000f780022
:104964009e0090000e1090000008de0010079800d2
:104974001e0078008000eb000df007006e09900027
:10498400fe0990004af0070070179800011f980074
:104994001e0090008000eb0005f007006e099000f7
:1049a400fe09900042f00700101f9800211f980094
:1049b40002002f00a35424001e189000ae1890008b
:1049c4003bf007000004be001e199000ae199000d1
:1049d4004e089000de0890004eef07000001be0074
:1049e4000800be00a9ef0700301f9800411f98007f
:1049f40002002000832c24003e189000ce18900062
:104a0400a2ef07000200200003f8230041ef070093
:104a140082042500c3b723009cef07000200200096
:104a2400030c24003cef0700501f9800611f9800fe
:104a340002002000833424007e1090008e18900021
:104a44001bf00700020020000304240031ef0700dc
:104a5400701f9800012798006266260063fe2300f9
:104a64007e1890008e20900011f0070002002000b4
:104a74000320240028ef070020079800310798003e
:104a84006266260063fe23005e189000ee18900014
:104a940007f0070002002000032024001eef070097
:104aa4004007980051079800c0002000aaf00700b2
:104ab400100a2000801f78004e009000de00900055
:104ac400809fbe00100a2000801f78002e009000f6
:104ad400be009000809fbe0020102a00801f780036
:104ae400dff00700ee8757002003200006fe0700d2
:104af4000000eb00102798000000eb00202798002e
:104b040069fe0700c0122000f1fd07007cfe0700cb
:104b1400a0002000fcfd070027fe070010ceb30014
:104b24003ffe070052fe07000000fb00202798000c
:104b34002e2090004804dd004dfe07000000fb001d
:104b4400000044002027980049fe070060c7980031
:104b540047fe07000000fb00102798001e2090006d
:104b64004804dd0042fe07000000fb000000440092
:104b7400102798003efe070070c798001bfe070030
:104b8400a0002000d2fd070052fe07001e20900066
:104b9400cf80de0083ef070002002000f332240000
:104ba400c3ef0700020020000378240037ef07005a
:104bb4000200200043232400d6ee0700402798007b
:104bc400512798002e209000cf80de0075ef07005b
:104bd40002002000832c2400b5ef0700020020000f
:104be4000378240029ef07006007980071079800f4
:104bf400100020003b0707000004e00029003200f9
:104c040018c0b30002002000a32f24004e209000ff
:104c1400de2090005fef07000000e0000100350097
:104c24000044eb000804e00017003200626626002e
:104c340063fe23004e209000de2090009cef0700ce
:104c44000200200003202400b3ee07002007980090
:104c540031079800c00020003ff007006e0090006c
:104c6400fe009000809fbe002e009000be009000c9
:104c7400809fbe0070122a00801f780078f0070021
:104c8400ea87570004003700c000200032f0070014
:104c940060142a0032f00700401f20009afd07002c
:104ca4006ffe3700400020000e0707000004e000fc
:104cb4000d0032001e08900000f0a7000000ea007a
:104cc4000000e9004f00de00100f9800401f200094
:104cd4008dfd0700401f20008bfd0700401f2000b2
:104ce40089fd07005efe370030002000fd06070046
:104cf4000004e00059fe320000f02f001033880059
:104d0400a00a200020338800401f20007efd0700f9
:104d14005005200020338800401f20007afd070042
:104d24004ffe37001200fa00000f9800e30047001e
:104d3400e2152a000b000900b258780020c3b30022
:104d44000000fb004400dd008040780070c3b30025
:104d54006f40600000c07000804078000e08900032
:104d64007140980050c3b3000000fb004400dd0014
:104d74008040780070c3b3006f40600000c07000d2
:104d8400804078000e0890006140980010c3b30082
:104d94000000fb004400dd008040780010c3b30035
:104da4006f40600000c07000804078000e089000e2
:104db4005140980000c2b3000000fb004400dd0035
:104dc4008040780020c3b3006f40600000c07000d2
:104dd400804078000e0890003140980020c3b30052
:104de4000000fb004400dd008040780000c3b300f5
:104df4006f40600000c07000804078000e08900092
:104e040011409800d0c4b3000000fb00a1042000ae
:104e1400810f50001e003200a1042000810f5000b9
:104e24000a003c0041042000810f50006100320060
:104e340061042000810f5000320032001104200070
:104e4400810f5000420032005d003700e104200071
:104e5400810f500054003200e1042000810f500003
:104e640004003c00d1042000810f500028003200cf
:104e740053003700f1042000810f50004700320036
:104e840031052000810f5000410032004c003700f2
:104e940010c6b3000000fb0011062000810f500073
:104ea4000400320051072000810f5000040032003a
:104eb4004300370010c0b3001047980010003700bb
:104ec40020c7b3000000fb00c1062000810f500082
:104ed40007003200e1062000810f5000010032007b
:104ee4000600370060c0b300104798000300370085
:104ef40070c0b300104798000000000000000000dc
:104f04002f00370020c0b300104798002c00370052
:104f140020c7b3000000fb0021072000810f5000d0
:104f24000400320091072000810f50000400320079
:104f34002300370030c0b300104798000300370047
:104f440050c0b30010479800000000001c00370058
:104f540010c6b3000000fb0001072000810f5000c1
:104f64000400320051072000810f50000400320079
:104f74001300370040c0b300104798000300370007
:104f840080c0b30010479800000000000c003700f8
:104f940090c0b300104798000900370000c1b30067
:104fa400104798000600370010c1b300104798005e
:104fb4000300370020c1b300104798000000000030
:104fc4000e0890009e4090002140980060c0b300fd
:104fd400004f78000e089000104090000080fb0005
:104fe4004400de00004078006a00b9000000780048
:104ff400804078000e089000104090006f406000e0
:1050040000c04000204798002e4090000080fb0024
:105014004200de00804078002e40900000c0400036
:105024001e4f40002e409000634060000004e000ea
:1050340004003a001e409000e24f500001003e0080
:105044001e4fe9001e4090000080fb000000e900b4
:1050540000004700304090001e4f40000e089000b2
:10506400304090000080fb004400de0000407800e7
:105074006a00b90000007800804078000e089000b3
:10508400304090006f40600000c040001e4f400060
:105094009e80fb00700020000001780011000900d0
:1050a4008280d8008000fd00004f78000e08900038
:1050b4009e407800414098000e089000104078000f
:1050c4000004a2000004e000230032000e08900057
:1050d40010409000f90007008e089000904098005e
:1050e4000e08900020409000f40007008e08900005
:1050f400a04098000e08900030409000ef00070098
:105104008e089000b04098000e0890004040900037
:10511400ea0007008e089000c04098000e08900036
:1051240050409000e50007008e089000d0409800a1
:105134000e08900060409000e00007008e08900088
:10514400e04098000e08900070409000db000700db
:105154008e089000f04098000080fa0000000600dd
:105164000200fa00881f7800000f78002200200057
:10517400600420007105200003102000804978009d
:105184008149780082497800cc21ef00871f78009c
:10519400881f78000500fc0057052000373b880075
:1051a400a80a2000383b8800cd61a9004f0478008c
:1051b400cf0378001e007800104078000004e0005f
:1051c400220032001e007800104090000080fb0096
:1051d4004800dd00800078001e0078002040900028
:1051e4000080fb0001007000100f88001e00780092
:1051f400304090000080fb00c800dd001e007800f5
:10520400404090000080fb0001007000000f880007
:105214001e007800504090000080fb00c800dd00b4
:105224001e007800604090000080fb0001007000c8
:10523400f00e88001e007800704090000080fb0093
:105244004800dd00e00e8800270037001e007800cb
:1052540010409000840007000080fb004804dd003b
:105264001e007800204090007f0007000080fb00b3
:1052740008007000100f88001e0078003040900075
:10528400790007000080fb004804dd001e00780060
:1052940040409000740007000080fb00080070008c
:1052a400000f88001e007800504090006e00070038
:1052b4000080fb004804dd001e0078006040900080
:1052c400690007000080fb0008007000f00e8800f1
:1052d4001e00780070409000630007000080fb000f
:1052e4004800dd00e00e880010002800600e8800f1
:1052f4004f0478000080fa00000006000400fa0061
:1053040010079800d861a80000000000c00e8000bb
:10531400680060000000e000fcff3200910f800094
:10532400010f78001e007800804078001e00900075
:10533400214098001e0078004800de00804078007c
:105344001e00900011409800810f8000010f78002a
:105354001e007800804078001e00900041409800b4
:105364001e0078004800de00804078001e00900097
:1053740031409800710f8000010f78001e00780002
:10538400804078001e009000614098001e00780064
:105394004800de00804078001e00900051409800d4
:1053a400610f8000010f78001e0078004800de00c5
:1053b400804078001e009000714098001e0090000c
:1053c400104078000004a2000004e0002300320032
:1053d4001e00900010409000380007009e009000ce
:1053e400904098001e009000204090003300070079
:1053f4009e009000a04098001e0090003040900055
:105404002e0007009e009000b04098001e009000ff
:1054140040409000290007009e009000c040980082
:105424001e00900050409000240007009e00900051
:10543400d04098001e009000604090001f000700bc
:105444009e009000e04098001e0090007040900084
:105454001a0007009e009000f0409800d861a9004f
:105464000080fa00000006000200fa00004f7800f5
:105474009e80fb00d0cc2c000008b8004308de005e
:10548400004078000080fb004400dd00804178008b
:105494001e81fb00d0cc2c000010b8004308de00b5
:1054a4006a00b90000007800000051000040780054
:1054b40000c071000080fa00000006000200fa003b
:1054c400004f78001e80fb004400de00004078009e
:1054d4006a00b90000007800804078001e4178001e
:1054e4006f40610000c040000080fa000000060028
:1054f4000200fa00000f78001e00780018ff070071
:105504000080fa00000006000200fa00000f780094
:105514001e00780079ff07000080fa0000000600f2
:105524000800fa00889fbe008a9fbe008c9fbe00c0
:1055340041098000f07f2e0000806000400988004f
:1055440041098000003020000100700040098800fb
:1055540041098000f0f32f000080600040098800ba
:1055640028a1a9002881a9002841a9000020200021
:105574009009880031e1a90031c1a8003181a80057
:105584003141a8003121a80031a1a8003101a900ae
:1055940081098000f0f92f000080600080098800f4
:1055a400a1098000f0ff230000806000a0098800aa
:1055b400a1098000000c200001007000a0098800ef
:1055c400a1098000c003200001007000a009880028
:1055d400a00980003000b300a00988002a61ef0010
:1055e40010002000700988002de1a8002dc1a8003a
:1055f4002d81a8002da1a900610980000060200070
:1056040001007000600988002d01a80029e1a800ac
:1056140000882300110020008c010700008823006b
:105624001100200089010700320320000100280036
:10563400010f78004100200011079800a0018000ac
